:020000040800F2
:10000000281E0020D5000008212F000855270008D1
:1000100000000000000000000000000000000000E0
:100020000000000000000000000000007F35000814
:10003000000000000000000051300008ED3500080D
:10004000E7000008E7000008E7000008E7000008F4
:10005000E7000008E70000084D0C00085D0C0008F0
:1000600000000000E7000008E7000008E7000008C3
:10007000E7000008E700000800000000E7000008B3
:1000800000000000E7000008000000000000000081
:10009000E700000800000000E7000008E700000893
:1000A000E7000008E7000008E7000008E700000894
:1000B000E7000008E7000008000000000000000062
:1000C0000348854600F070FA004800478D3E00085E
:1000D000281E00200448804704480047FEE7FEE74A
:1000E000FEE7FEE7FEE7FEE761360008C100000814
:1000F00030B50B46014600202022012409E00D46C0
:10010000D5409D4205D31D469540491B2546954047
:1001100040191546521E002DF1DC30BD70B500248B
:100120002546002801DA01244042002901DA012590
:100130004942FFF7DDFFAC4200D04042002C00D026
:10014000494270BDF0B51FB40646002082B0054696
:100150004024019100901BE0019922460F46304651
:1001600000F071F9049A059B801A994110D310464A
:100170001946224600F057F9361A8F410197224658
:1001800001200021009F00F04EF938184D410090E9
:100190002046641E0028DFDC019B00982946324679
:1001A00007B0F0BDD2B201E00270401C491EFBD284
:1001B00070470022F6E710B513460A460446194672
:1001C000FFF7F0FF204610BD024670B54A40D30F3E
:1001D000DB0740002DD04A002AD0010E140E000289
:1001E00012020919400A520A8418E50104465443D0
:1001F000000A120A2E045043A4194219200CC543C8
:10020000AA18120C0125AD03521C521912047F3991
:10021000240400D0521C104301D44000491EC2B235
:100220000C06C0092018401C4008802A02D003E0B8
:10023000002070BD40084000002900DA002018436B
:1002400070BD70B502464A40D50F40004A00ED0728
:1002500040085208002814D0002A12D0C40DD30D33
:1002600041020120C0055202490A520AE41A091843
:1002700012187D34914201D3641C00E04900002C27
:1002800001DA002070BD0023914201D3891A034393
:10029000400849000028F7D100290AD0914202D134
:1002A0000121C90705E0914201D2012101E00121AC
:1002B000C943E005C018401900F0D6F870BD000031
:1002C000F0B51FB488B00B990998002448400999EB
:1002D000C00F490049080991C0070B9900904900D7
:1002E00049080B9109990898A64608431CD00B9918
:1002F0000A98084318D0099801244000420D48008C
:10030000410D099824050003000B204309900B9828
:100310000003000B20430B9050181C49401800228A
:1003200001901446104605E0002001460DB0F0BDD6
:10033000032801DA034600E003239C46C11A0AAEF3
:100340000AE05F0008ADED5B4F00F75B7D430027DF
:10035000AA187C41491C5B1E6145F2DD410004ABDB
:100360005A522104120C0A43240C401C0828DFDBDB
:10037000019802900099704601910090059B049AA3
:100380000799069800F0BEF8D0E700000DFCFFFFCB
:1003900010B500229623114600F06EF810BD000043
:1003A0000EB505490291002100910A460B460191C4
:1003B00000F0A8F803B000BD33040000C20F4100F4
:1003C00040020123400ADB05D207090EC0187F292D
:1003D00001DA00207047962903DC9623591AC84099
:1003E00001E096398840002AF4D040427047CB0F94
:1003F000DB07490010B5490802460A4307D00A0D39
:1004000007240903E401090B121B002A01DC002068
:1004100010BDC900440F0C43C100E018D20580187C
:1004200000F022F810BD10B5202A04DB0146203A66
:100430009140002010BD914020239C1A0346E340C8
:100440001943904010BD10B5202A04DB0846203A1D
:10045000D040002110BD0B46D340D0402024A21A2A
:1004600091400843194610BD002904DA401C490098
:1004700001D140084000704770B40024050C05D13C
:100480001024000402D1002921D01124050E01D12D
:1004900000020834050F01D10001241D850F01D190
:1004A0008000A41C002801DB4000641C002908D047
:1004B00020252E1B0D46F540A14000D001212943E7
:1004C000084301061B1B000ADB1D02D5002070BC7F
:1004D0007047DB05181880180029F8DA401C49001D
:1004E000F5D170BC40084000704710B5002B08DA09
:1004F0000024401C614192185B411A4301D140081D
:10050000400010BDF0B51FB482B005460C0003D00A
:10051000084603F037FB02E003F034FB20300246CC
:10052000009021462846FFF77EFF049B059A04466B
:100530000F4618431143084314D0184610431BD0EC
:10054000009840210A1A18460599FFF77CFF0546D6
:100550000E46009A05990498FFF765FF084305D0F9
:10056000012004E02046394607B0F0BD0020C11745
:1005700005430E432C43374300990E986305401AF8
:100580007905E40A00220C43FD0A0A3002D5002056
:100590000146E9E70105101969410C9C0D9D001900
:1005A0006941FFF7A2FFDFE7064C0125064E05E093
:1005B000E36807CC2B430C3C98471034B442F7D384
:1005C000FFF782FD54CA000874CA000870B58C1881
:1005D0000578401C6B075B0F01D10378401C2A1182
:1005E00006D10278401C03E006780E70401C491CBE
:1005F0005B1EF9D12B0705D40023521E0DD40B70BE
:10060000491CFAE70378401CCB1A921C03E01D78C2
:100610000D70491C5B1C521EF9D5A142D8D3002095
:1006200070BD70B5044600688168490720D58168AF
:1006300010264907002905DA8168890702D48168F4
:100640003143816001F076F805460DE001F072F863
:10065000401B0A2808D9606D30436065A06D0121F8
:100660000843A065084670BD206880684007EDD447
:10067000002070BD38B50446064805490068FFF7FC
:1006800037FD604300E0401E00900028FBD138BDDC
:1006900040420F0068000020F8B5044600688168F9
:1006A0008907890F012925D10168C90722D08168EE
:1006B000052211401025012601290FD1816802224F
:1006C0001143816021680320086001F033F8074678
:1006D0000CE001F02FF8C01B0A2807D9606D2843F1
:1006E0006065A06D3043A0650120F8BD206880687A
:1006F000C007EED10020F8BDF8B504460068816857
:100700008907890F012902D10168C90722D18168AF
:10071000114A10261140012500290ED18168294374
:1007200081600120FFF7A6FF01F004F807460CE006
:1007300001F000F8C01B0A2807D9606D30436065DE
:10074000A06D2843A0650120F8BD20680068C04363
:10075000C007EDD10020F8BD17000080014901203D
:10076000087070471C00002010B50D49002408686F
:10077000002813D0401E086010D10A48816B012266
:10078000520591438163C021074800F07BFE074872
:1007900001F01FF8002801D00724E443204610BDD3
:1007A0003800002000100240000400503C020020ED
:1007B00030B51E4987B01C4808601D4800240168F8
:1007C000491C016001292CD1184801F01EF80028AD
:1007D00027D1184DE96A02200143E962E96A014024
:1007E0000591C02000901220012101900320029168
:1007F000049103906946104800F0D4FEA86B0121D3
:1008000049050843A863094802F0BEF90725ED43EE
:10081000002805D10021054800F092FF002800D0F3
:100820002C46204607B030BD005400403C0200205A
:1008300038000020001002400004005010B50A46A5
:100840000123014600241B03034801F03BF8002864
:1008500000D0E41E204610BD3C0200203EB50092B0
:1008600001250A462D030193014600240295022327
:10087000084801F0B7F8002809D0064800F0C3FF87
:10088000042802D06524E44301E00324E443204625
:100890003EBD00003C0200203EB5009201250A4604
:1008A0002D0301930146002402950223074801F01D
:1008B00043F9002805D0054800F0A5FF042802D020
:1008C000241F20463EBD6524E443FAE73C02002095
:1008D00010B5094C00220121204600F024FF05201C
:1008E00000228021000700F01EFF00220221204686
:1008F00000F019FF10BD00000004005010B5094CB5
:1009000000220121204600F00EFF05200022802158
:10091000000700F008FF01220221204600F003FF3B
:10092000002010BD0004005070B50546012002F003
:1009300027FE00240526360700224021304600F01D
:10094000F2FE012002F01CFE280601D5012200E083
:1009500000222021304600F0E6FE6806050E012048
:1009600002F00EFE01224021304600F0DCFE0120A4
:1009700002F006FE641CE4B2082CDDD370BDF8B5AD
:10098000C827002119263B463A46084600F028F9B8
:1009900000242146002000F0E1F8242000F0AAF80D
:1009A0000025FF2000F0C0F86D1CADB2B542F8D3B1
:1009B000641CA4B2BC42ECD300F03AF9F8BDF1B526
:1009C000C82082B00346024600210090192708463D
:1009D00000F006F900242146002000F0BFF8242092
:1009E00000F088F8C7200025061B7E430299701985
:1009F000085C00F099F86D1CADB2BD42F6D3641CE2
:100A00000098A4B28442E6D300F012F9FEBD0000C3
:100A100010B500F051F800F03FF8122000F06AF82D
:100A200000F03AF8012000F065F8C72000F07CF8EB
:100A3000002000F079F8012000F076F8112000F095
:100A400059F8012000F070F80023C722114618461B
:100A500000F0C6F83C2000F04DF8012000F064F8EA
:100A6000182000F047F8802000F05EF8222000F007
:100A700041F8B12000F058F8202000F03BF8C721E1
:100A8000002000F06BF800F007F8024800F079F859
:100A900010BD00006F00002070B5FF240134052553
:100AA0002D0702E00A2000F0BEFC2146284600F097
:100AB00035FE0128F6D070BD10B50D4C0122022183
:100AC000204600F030FEC82000F0ADFC00220221DC
:100AD000204600F028FE022000F0A5FC01220221A1
:100AE000204600F020FEC82000F09DFC10BD000054
:100AF0000004005070B5054600220121094800F0AD
:100B000012FE0524240700228021204600F00BFE5F
:100B10002846FFF709FF01228021204600F003FE4E
:100B200070BD00000004005070B50546012211465A
:100B3000094800F0F8FD0524240700228021204602
:100B400000F0F1FD2846FFF7EFFE0122802120464C
:100B500000F0E9FD70BD00000004005070B50546CE
:100B60000C464E20FFF7C6FFE8B2FFF7DDFF4F202F
:100B7000FFF7C0FFE0B2FFF7D7FF200AFFF7D4FF6F
:100B800070BD70B505463220FFF7B4FF0024285D24
:100B9000FFF7CAFF641CE4B2992CF8D3FFF77CFF7F
:100BA0003F20FFF7A7FF8035687EFFF7BDFF0320DA
:100BB000FFF7A0FF0020FFF7B7FF0420FFF79AFF21
:100BC000E87EFFF7B1FFA820FFF7AEFF687FFFF7D1
:100BD000ABFF2C20FFF78EFFA87FFFF7A5FF70BDAE
:100BE000F8B507461C4616460D464420FFF782FF1F
:100BF0007805000EFFF798FF7005000EFFF794FFD1
:100C00004520FFF777FFE8B2FFF78EFF280AFFF7CE
:100C10008BFFE0B2FFF788FF200AFFF785FFF8BDE2
:100C200010B51020FFF766FF0120FFF77DFF10BD14
:100C300010B52220FFF75EFFC720FFF775FF2020C9
:100C4000FFF758FFFFF728FF10BD000010B502485E
:100C500000F0FEFB10BD00005800002010B5012080
:100C6000C00300F093FC10BDF8B5002929D002465E
:100C7000C821084600F0FEF82225F72402F0E9F921
:100C80000526360700228021304600F04CFD104F2B
:100C900000220121384600F046FD284602F07BFC88
:100CA00001221146384600F03EFD204602F073FC5A
:100CB00001228021304600F036FD202000F0C0F8EF
:100CC000F8BDC8210022084600F018F9D4E700005A
:100CD0000004005010B500F04FF810BD70B51220A0
:100CE00000F0AEF8FF2501350524240702E00A20B4
:100CF00000F099FB2946204600F010FD0128F6D0AF
:100D000004211C4800F070F81A480221103800F045
:100D10006BF818480321801F00F066F8154805217C
:100D2000001D00F061F8134802210E3800F05CF855
:100D3000104802210C3800F057F80E4802210A38FA
:100D400000F052F8202000F07BF80A480221083811
:100D500000F04AF807480321C01E00F045F802E001
:100D60000A2000F060FB2946204600F0D7FC01284D
:100D7000F6D070BD1100002070B51A4D002201217F
:100D8000284600F0D0FC05242407002280212046BC
:100D900000F0C9FC01220221284600F0C4FCC82052
:100DA00000F041FB00220221284600F0BCFC0A2092
:100DB00000F039FB01220221284600F0B4FCC820D3
:100DC00000F031FBFF25013502E00A2000F02BFB8B
:100DD0002946204600F0A2FC0128F6D0FFF77EFF4E
:100DE00070BD000000040050F8B504460E46002512
:100DF00005202A468021000700F095FC0F4F0022B5
:100E00000121384600F08FFC207802F0C4FB01225B
:100E100011463846641C00F086FC761E05E02078FA
:100E200002F0B9FB6D1CEDB2641CB542F7DB052086
:100E300001228021000700F076FCF8BD000400507C
:100E400070B505240546240700228021204600F0C5
:100E50006AFC00220121064800F065FC284602F0E9
:100E60009AFB01228021204600F05DFC70BD00004D
:100E700000040050F7B51446410705D04107490F5B
:100E80000822511A0818C0B2FF26C70801360525E6
:100E90002D073146284600F041FC0128F9D002F028
:100EA000D8F8052000228021000700F03CFC124DFC
:100EB00000220121284600F036FC242002F06BFBC2
:100EC00001221146284600F02EFC002609E00025EC
:100ED00004E0207802F05FFB641C6D1CBD42F8DB6F
:100EE000761C01988642F2D305200122802100075A
:100EF00000F019FCFEBD000000040050F7B50E46DE
:100F00000024410705D04107490F0822511A08184B
:100F1000C0B2C70802F09DF805200022802100071A
:100F200000F001FC104D00220121284600F0FBFBDF
:100F3000242002F030FB01221146284600F0F3FB8A
:100F400008E0002503E0029802F025FB6D1CBD427D
:100F5000F9DB641CB442F4D3052001228021000790
:100F600000F0E1FBFEBD0000000400507047F8B542
:100F7000054604464035287C0026012808D001207B
:100F80002874206881688907890F01290ED101E042
:100F90000220F8BD0168C90708D0606D2021084310
:100FA00060650126002028743046F8BD616DFF227F
:100FB00001329143022211436165C1688907890F9B
:100FC0000091C16889088900C16020688168920722
:100FD0001143816000F0AEFB07460EE000F0AAFB73
:100FE000C01B0A2809D9606D0221884310210843DB
:100FF0006065002028740120F8BD20688068002802
:10100000ECDB2068C168009A1143C160606D800804
:101010008000401C6065C5E7F8B506460D464036C1
:10102000317C01290DD00121317401688A68520791
:1010300009D5416D20221143416500203074012003
:10104000F8BD0220F8BD174B6A68D80547109A42D0
:10105000154C8A6A2B6812D05B035B0B1A438A62B9
:101060002968490305D5A1680143A1600A20FFF75B
:1010700001FB2868800312D5A06838430EE05B03AB
:101080005B0B9A438A622968490302D5A1688143B0
:10109000A1602868800302D5A068B843A060002042
:1010A0003074F8BD01100000002701400068006C9A
:1010B0007047000070B5040006D0606D264600251C
:1010C0004036002802D006E0012070BDA5653574C9
:1010D000204600F0D3F8606DC00603D4216888680C
:1010E000400705D5606D1021084360653574EBE756
:1010F000606DFF22013290430222104360658868D0
:101100008207920F5B48012A02D10A68D2072BD1CD
:10111000032362689B079A4205D05B429A4202D041
:101120005B009A4209D10A69920092080A6121681B
:101130000A6963681A430A610CE00A69920092081E
:101140000A6181680F22920491438160816862681C
:10115000114381602168CA6818239A43CA602168D4
:10116000CA68A3681A43CA60816801225206914383
:1011700081608168A28E5206114381602068816877
:10118000C90004D4816801221207114381602068DC
:10119000C168394A1140C1602069E168022825D040
:1011A00000200143204620300278037B52035B007D
:1011B0001A431143226B1143A26992031143E2695E
:1011C000D20311432268D3681943D160616A0A4689
:1011D000FF3AC23A05D0A26A11432268D368194384
:1011E000D16042780121012A02D00BE00420D8E727
:1011F0000078002823D0606D202210436065A06D28
:101200000843A065E06B012820681FD00169C90769
:1012100003D0016949084900016120684169C90892
:10122000C900416120684169A26B11434161A56514
:10123000606D80088000401C6065002070BD2068E3
:10124000C26801231B041A43C260DBE70269FF2363
:101250009B009A43026120680269236CA66C1A43C2
:10126000636C33431A430261206802690A430261D6
:10127000D3E70000002701401902FEFF10B586B039
:10128000044614216846FEF794FF0E492068884200
:1012900015D10D48416B421511434163C16A0122CA
:1012A0001143C162C06A6946104005900320009056
:1012B0000190002002900520000700F073F906B0AD
:1012C00010BD00000024014000100240F8B50446A3
:1012D0004069254640350E4608280BD02068C06876
:1012E000C00709D0606D2021084360650020287484
:1012F0000120F8BD082700E00C2700F01BFA009041
:1013000011E0701C0FD0002E05D000F013FA0099E8
:10131000401AB04207D9606D04210843606500207F
:1013200028740320F8BD206800683842E9D0606D59
:1013300001214902084360652068C16809058A0FD8
:101340000C21002A1BD12022125D002A17D102682D
:10135000120714D5826853070122002B08DB43686B
:101360008B434360606D130298431043606506E051
:10137000606D202318436065A06D1043A065A069CF
:10138000002801D1206801600020F8BD70B5044636
:10139000216800208968490721D425464035297CE9
:1013A00001291CD001212974E169012904D02046BA
:1013B000FFF7A2F9002811D1616D0A4A1140FF22FE
:1013C0000132114361650021A165297422681C2145
:1013D000116021688A6804231A438A6070BD022064
:1013E00070BD0000FEF1FFFF70B5054604464035B4
:1013F000287C012807D001262E742046FFF711F91A
:10140000002802D00CE0022070BD2046FFF744F90E
:10141000002805D1616DFF2201329143314361659E
:101420000021297470BD70B5044600F083F90546AB
:10143000601C00D0641C00F07DF9401BA042FAD370
:1014400070BD002802D00160002070470120704765
:101450000178CA06D20E01219140054A53690B4218
:1014600004D051614068002800D000477047000058
:101470000004014003460020002901D001207047EC
:101480005A607047F0B500235DE001249C4022467D
:101490000A4057D006685F000325BD402E43AC4686
:1014A0000660DD08AD002D182E6AAE465D07EF0E12
:1014B0000F25BD40AE4375462E6286686546AE4335
:1014C00086604568A5434560C4686546AC43C46012
:1014D0009D081F4CAD002D19AF689C07260F0F24E7
:1014E000B440A4463C4005273F07B84201D100273D
:1014F00014E0184FB84201D101270FE0164FB8424F
:1015000001D102270AE0154FB84201D1032705E0B7
:10151000134FB84201D1052700E00627B740A74284
:1015200010D1AE686446A643AE600E4C2568954364
:101530002560656895436560A5689543A560E56885
:101540009543E5605B1C0A46DA409ED1F0BD000081
:10155000000001400004005000080050000C005042
:10156000001C0050000401400121C903884209D138
:1015700005480178491C01704178491C4170817807
:10158000491C8170704700006C00002010B50449B0
:101590004A69024202D04861FFF7E6FF10BD000031
:1015A00000040140F8B500230124A2E027469F4033
:1015B0003A4070D04D68022D01D0122D14D1DD08B3
:1015C000AD002D1800952D6A5E07AC46F50E0F266E
:1015D000AE46AE406546B543AC460E697546AE4074
:1015E00065462E43009D2E624D68012D05D0022DCB
:1015F00003D0112D01D0122D16D185680326AC46DB
:101600005D00AE46AE406546B543AC46CE68754615
:10161000AE4065462E43866046680D79BE43ED06B2
:10162000ED0F9D403543456006685F000325BD40D2
:10163000AE46AE430D79B446AE07B60FBE40654622
:101640002E430660C6687546AE438D68BD4035437F
:10165000C5604D68ED004BD5294D6E6B26436E631A
:101660009E08284DB6007519AC46AD689E07360F2A
:101670000F27B740BD4305273F07B84201D10027D8
:1016800015E0214FB84201D1012710E01F4FB842A9
:1016900002D102270BE02BE01D4FB84201D10327F6
:1016A00005E01C4FB84201D1052700E00627B740EE
:1016B0002F436546AF60184D2E684F689643FF0371
:1016C00000D516432E606E684F689643BF0300D561
:1016D00016436E60AE684F689643FF0200D516430E
:1016E000AE60EE684F689643BF0200D51643EE60C9
:1016F0005B1C0A681546DD4000D057E7F8BD0000C6
:10170000001002400000014000040050000800509A
:10171000000C0050001C005000040140006908400B
:1017200000D001207047002A01D08161704781629A
:101730007047000001480068704700006400002006
:1017400070B5024640325378202B1CD11378012B00
:1017500019D00123137024245470046825689D4314
:101760002560046825681E03B54325600468256864
:101770000D43256000680168194301602020507006
:101780000020107070BD022070BD70B5024640325E
:101790005378202B1BD11378012B18D001241470FF
:1017A0002423537003681D68A5431D6005682B68DA
:1017B0000F263602B3430902194329600068016805
:1017C00021430160202050700020107070BD022065
:1017D00070BD70B5040014D0242120464030054669
:1017E000417020680168490849000160204600F006
:1017F00049FA0021616469702163A9702970084663
:1018000070BD012070BD406C70474030407870471B
:1018100070B5040006D025464035687800260028BB
:1018200002D005E0012070BD2E70204600F02BFA9A
:1018300024206870206801684908490001600F2170
:101840006068090688432168086121688A68012068
:10185000C00382438A60E1680129A16808D021227F
:101860009202114322689160E168022902D005E0EA
:101870000143F7E701212268C902516021684A68E3
:101880000F4B1A434A602168CA688243CA60616983
:1018900020690843A169090208432168C860216AD8
:1018A000E06908432168086020680168012211434B
:1018B00001606664202068702663AE70002070BDF1
:1018C00000800002FFB50446002083B02546403565
:1018D00001906A78202A74D122689269D243120456
:1018E0007BD52A78012A78D001222A7024226A70B6
:1018F00060648F05BF0DE06801280BD00520C00291
:10190000012138188902884321684860FFF712FFD7
:1019100006460CE03248F3E70698401C07D0FFF774
:1019200009FF811B0698814219D8002817D0216829
:10193000886989698006C00FC906C90F0843EBD0C2
:1019400020688069069BC043C006009617D5002218
:101950002021204600F0BCFF002830D107E02020E5
:101960006870616C014361640020287027E0216881
:101970002020C86168700020287007B0F0BD0022E8
:101980002021204600F0A4FF002818D12168102053
:10199000C86121682020C86101990598814214D14D
:1019A00020684168012292031143416000960022A1
:1019B00020212046069B00F08BFF002802D001204A
:1019C000DBE70AE021682020C8610198401C01463D
:1019D0000190059881428ED3C1E70220CDE7000037
:1019E00000200002FFB5054604464035687883B004
:1019F000202875D10C98002814D00D98002811D0FB
:101A0000287801286CD001202870FFF793FE074644
:101A1000012200901923D103204600F059FF00282D
:101A200074D103E00120400260646FE022206870FE
:101A30004020A870002666640C9860620D9860854E
:101A400066630E980090019704A90EC9204600F025
:101A5000CBFE002801D02E7058E0618D3448FF295C
:101A600005D9FF22228501231B06009006E0618D27
:101A700021850090208D0123C2B25B062046049987
:101A800000F012FF00970022042120460E9B00F078
:101A90001FFF00283AD12068406A616A0870606AB6
:101AA000401C6062208D401E81B22185608D401EE9
:101AB0006085608D00281FD000291DD1009700226D
:101AC000802120460E9B00F003FF00281ED1608D70
:101AD000FF2806D9FF22228501231B06009607E076
:101AE00024E0608D20850096208D0123C2B25B0624
:101AF0002046049900F0D8FE608D0028C2D13A46F5
:101B000020460E9900F00BFF002802D0012007B0FC
:101B1000F0BD20682021C16120684268054B1A4051
:101B200042606970AE702E700020F0E70220EEE790
:101B30000024008000E800FEFFB50546044640355D
:101B4000687883B0202872D10C98002814D00D98A2
:101B5000002811D02878012869D001202870FFF7CB
:101B6000E9FD0746012200901923D103204600F029
:101B7000AFFE002871D103E00120400260646CE0F8
:101B8000212068704020A870002666640C9860626E
:101B90000D98608566630E980090019704A90EC9A0
:101BA000204600F051FE002801D02E7055E0608DD7
:101BB000FF2805D9FF22228501231B06009606E097
:101BC000608D20850096208D0123C2B25B062046E1
:101BD000049900F069FE3A4620460E9900F0C5FED1
:101BE00000283AD1606A216800788862606A401CE7
:101BF0006062608D401E6085208D401E80B2208511
:101C0000618D00291FD000281DD10097002280215E
:101C100020460E9B00F05CFE00281ED1608DFF2840
:101C200006D9FF22228501231B06009607E024E047
:101C3000608D20850096208D0123C2B25B06204670
:101C4000049900F031FE608D0028C4D13A46204648
:101C50000E9900F064FE002802D0012007B0F0BD0C
:101C600020682021C16120684268054B1A4042600B
:101C70006970AE702E700020F0E70220EEE70000E1
:101C800000E800FE7047704702480168491C016087
:101C9000704700006400002010B508480024016867
:101CA000402211430160204600F00AF8002801D0CC
:101CB000012401E000F01CF8204610BD0020024085
:101CC00070B5054609487D210024C9000068FEF76B
:101CD0000FFA00F0F9FB002801D0012404E00022F3
:101CE0002946501E00F01AF8204670BD68000020FA
:101CF0000448416B012211434163816B020411438B
:101D00008163704700100240C106C90E012088405F
:101D1000014908607047000000E100E010B501F0E3
:101D200001F910BDF8B504460078544D800672D50F
:101D3000524E0027403EB06BC00004D4B06BA905E2
:101D40000843B06301274E480168C90511D40168F2
:101D5000821511430160FFF7EDFC009005E0FFF7ED
:101D6000E9FC0099401A642837D845480068C00546
:101D7000F5D532680321090560680A4001409142A7
:101D800008D08103890F032904D13168890301D563
:101D90000120F8BD2A69032109040A4022D0084025
:101DA00090421FD0207880061CD528692A69884374
:101DB0000121C9040A432A612A698A432A612861E8
:101DC000C0050FD5FFF7B6FC009008E0FFF7B2FCA6
:101DD0000099411A2B48814201D90320F8BD286996
:101DE0008005F3D561688803800F032805D1326828
:101DF0000005824301400A4332602869032261687A
:101E00001204114008432861002F04D0B16B012057
:101E100000078143B1632078C00705D0E868A16856
:101E2000800880000843E8602078800705D5E868CE
:101E30000C218843E1680843E8602078400706D514
:101E4000E86803218902884321690843E860207813
:101E5000000706D5E8680321090388436169084340
:101E6000E8602078000606D5E868032189048843E5
:101E7000A1690843E8600020F8BD0000401002405E
:101E80000070004088130000F8B50E4605007DD0B4
:101E900053480068C007C00FB0420AD250480168DA
:101EA00049084900314301600068C007C00FB042D3
:101EB00071D128784B4C800705D5E068F021884324
:101EC000A9680843E0602878C00752D068680228F3
:101ED00017D0032818D02168012818D089050029B7
:101EE00059DAE168890889000143E160FFF722FCC3
:101EF00069680746022912D003291CD0012926D07F
:101F000033E021688903EAE721688901E7E74907A7
:101F1000E5E7FFF70FFCC11B3348814223D8E06897
:101F20000007800F0228F4D123E0FFF703FCC11B58
:101F30002D48814217D8E0680007800F0328F4D1AC
:101F400017E0FFF7F7FBC11B274881420BD8E06879
:101F50000007800F0128F4D10BE0FFF7EBFBC11B5A
:101F60002148814201D90320F8BDE0680007800FB5
:101F7000F3D11B480168C907C90FB1420DD90168E7
:101F80004908490031430160006800E003E0C007F0
:101F9000C00FB04201D00120F8BD2878400706D517
:101FA000E068072109028843E9680843E06028786F
:101FB000000707D5E0680721C90288432969C900DD
:101FC0000843E06000F036F8E168084A0906090FA6
:101FD000515CC840064908600020FFF771FEF8BD5B
:101FE00000200240001002408813000030CA0008A0
:101FF00068000020044805490068C968044A49058A
:10200000490F515CC8407047680000200010024032
:1020100049CA0008044805490068C968044A890497
:10202000490F515CC8407047680000200010024012
:1020300049CA000810B5184AD1680C200840042885
:102040000BD0082810D00C2810D050680004410F85
:102050000120C003491C884010BD1068C00601D58E
:102060000E4810BD0E4810BD0E4810BD88020E4B24
:10207000000F185C0902D368890F491CDB0301D5E6
:10208000084A05E01268D20601D5044A00E0044A75
:102090005043FEF72DF810BD0010024000093D002E
:1020A0000024F40000127A0040CA0008FEB50500C2
:1020B0007ED0FE4CE7680C20E66807400120000453
:1020C00006402878C00747D0082F05D00C2F0AD12A
:1020D00001200004864206D1206880033CD5686850
:1020E0000028E5D038E0012069680004814203D16E
:1020F00021680143216011E0052301221B049204A1
:102100009942216802D111432160F1E781432160A6
:102110002168014000912068904320606868002891
:102120000DD0FFF707FB009005E0FFF703FB0099D8
:10213000401A64287AD820688003F6D50CE0FFF7AF
:10214000F9FA009005E0FFF7F5FA0099401A6428C3
:10215000F0D820688003F6D42878800755D5092365
:10216000E868042F0DD00C2F01D1002E09D00028D3
:102170003BD02168994301432160FFF7DBFA064613
:1021800027E02168490701D5002891D061681F2206
:10219000120291432A691202114361602168994336
:1021A00001432160FFF746FFE16809060A0F00E0DE
:1021B00079E1BF49895CC840BE4908600020FFF74B
:1021C0007FFD002872D120E0FFF7B4FA801B0228BF
:1021D000B0D820684007F7D560681F2109028843FE
:1021E00029690902084360600FE020684008400048
:1021F0002060FFF79FFA064604E0FFF79BFA801B7A
:10220000022897D820684007F7D42878C0065FD501
:10221000002F0CD0A869002849D02068FF21013187
:1022200008432060FFF786FA06462DE0C0E02068EC
:10223000800502D5A8690028A7D060680721490356
:102240008843296A084360606068297F0002000AA9
:10225000090608436060286A410B0120C003491C3D
:102260008840E16809060A0F9149895CC840914994
:1022700008600020FFF724FD002817D128E0FFF7B1
:1022800059FA801B0228A3D820688005F7D560681A
:10229000072149038843296A084360606068297FF1
:1022A0000002000A09060843606011E0E1E02168CD
:1022B000FF20013081432160FFF73CFA064604E02D
:1022C000FFF738FA801B022872D820688005F7D4FF
:1022D0002878794E000724D568690028306910D025
:1022E000012108433061FFF725FA009005E0FFF770
:1022F00021FA0099401A02285AD830698007F6D589
:102300000FE0400840003061FFF714FA009005E04C
:10231000FFF710FA0099401A022849D8306980075F
:10232000F6D42878400765D500200290A06BC00045
:1023300006D4A06B012109070843A0630120029085
:102340005E480168C90511D4016882151143016016
:10235000FFF7F0F9009005E0FFF7ECF90099401A5B
:10236000642825D855480068C005F5D5FF20AA681F
:102370000130824203D131690143316111E0012111
:102380008902002A07D005231B029A4203D1326931
:102390000A433261EFE73269824332613069884330
:1023A0003061A86800280FD0FFF7C4F9009007E05B
:1023B0005EE0FFF7BFF90099411A4148814257D8C2
:1023C00030698005F5D50DE0FFF7B4F9009006E01F
:1023D000FFF7B0F90099411A3948814248D830696D
:1023E0008005F5D40298002804D0A06B01210907CC
:1023F0008843A063686A002864D00C2F3ED0012671
:1024000036060228206805D0B0432060FFF792F915
:1024100005462FE0B0432060FFF78CF9074604E043
:10242000FFF788F9C01B022822D820688001F7D462
:10243000E96AA86AE2680843296BFD231B049A43F2
:1024400011430843E060206830432060FFF772F9D1
:10245000054604E0FFF76EF9401B022808D8206803
:102460008001F7D52EE0FFF765F9401B022801D95E
:102470000320FEBD20688001F5D423E00128F8D0B8
:10248000E06801210904AA6A014091420BD10F21A1
:102490008904EA6A0140914205D103218905084077
:1024A000296B88420ED00120FEBD000000100240C2
:1024B00030CA000868000020401002400070004050
:1024C000881300000020EFE7094910B5401E88423C
:1024D00001D9012010BD074C60610321081F00F0E5
:1024E00021FD0020A06107202061002010BD000018
:1024F000FFFFFF0000E000E010B5040003D0606FB4
:10250000002802D007E0012010BD002170200155F5
:10251000204600F027F824206067206801684908F9
:1025200049000160204601F0B3F90128ECD0606A4F
:10253000002802D0204601F0BDF820684168092239
:10254000D20291434160206881682A2291438160D0
:1025500020680168012211430160204601F010F952
:1025600010BD000010B586B0044614216846FDF782
:1025700020FE1149206888421CD11048416B01227D
:10258000920311434163C16A01221143C162C06ACF
:1025900069461040059003204002009002200190FF
:1025A00000200290032003900420049005200007DF
:1025B000FEF7F8FF06B010BD0038014000100240E1
:1025C000F0B5836F202B54D100290AD0002A08D0FF
:1025D0008568DC01A54206D10369002B03D1CB0736
:1025E00001D00120F0BD034660331E7C012E40D097
:1025F00001261E744165014640310A834A83002248
:10260000FF260266A54204D10569002D13D11A4D9B
:102610000AE07F27002D09D001263607B5420CD1EC
:102620000569002D05D03F258D8307E00569002D44
:1026300001D08F8302E08E8300E08A83C26722216B
:10264000816701688D68012635438D608168A142EC
:1026500002D1016900290AD0084901661A7400688C
:102660000168FF222132114301600020F0BD0449BE
:10267000F3E70220F0BD0000FF0100003938000838
:10268000E13700087047FFB50446406F83B0174636
:102690000D4620285CD1002D0AD0002F08D0A1685B
:1026A000C001814207D12069002804D1E80702D087
:1026B000012007B0F0BD204660300290007C012868
:1026C00046D00298012101740020E0672120606754
:1026D000FFF730F826464036019037827782012096
:1026E000A1680003814202D12069002802D02F4650
:1026F000002511E000270FE000228021204601F094
:10270000DBF9002815D1002F15D0216838788862B0
:102710007F1C708A401E7082708A019B0028069878
:102720000090E9D100224021204601F0C5F900289F
:1027300008D00320BDE728882168C005C00D886245
:10274000AD1CE6E720206067029900200874B0E71E
:102750000220AEE7FEE701688A69D243920701D4FE
:1027600000228A6200688169C943C90703D0816970
:102770000122114381617047F7B5044600680E4697
:102780008069C043C0062BD42027254640352068E9
:102790008069C043800612D5701CF8D0FEF7CAFFCE
:1027A0000299401AB04201D8002EF0D1606C384333
:1027B00060646F700020A87028700120FEBD216841
:1027C0001020C8612068C7612046FFF7C4FF206859
:1027D0004168044A11404160606C04210843E7E706
:1027E0000020FEBD00E800FEF8B504461646154878
:1027F0001D46DAB20090079F0023204600F054F8EF
:102800003A462046069900F0B0F8002818D128462C
:10281000F5B2012809D02168300A88623A4620467C
:10282000069900F0A2F800280AD120688562009776
:10283000002240212046069B00F04AF8002800D0E4
:102840000120F8BD00200080F8B504461646154862
:102850001D46DAB2C3020090079F204600F024F81C
:102860003A462046069900F080F8002818D12846FC
:10287000F5B2012809D02168300A88623A4620461C
:10288000069900F072F800280AD120688562009746
:10289000002280212046069B00F01AF8002800D074
:1028A0000120F8BD00200080F0B50668059C756821
:1028B000064F600D384385438805800D1104084399
:1028C0001843204305437560F0BD0000FF63FF031C
:1028D000F8B51D4617460E46044609E0681C07D0A9
:1028E000FEF728FF0699401AA8420BD8002D09D000
:1028F00020688169304688430FD00020B842EDD06F
:102900000020F8BD616C2020014361644034607098
:102910000020A07020700120F8BD0120EEE770B506
:1029200016460D4604460FE0324629462046FFF77C
:1029300023FF002801D0012070BDFEF7FBFE801BA5
:10294000A84208D8002D06D020688069C0438006C0
:10295000EAD4002070BD616C2020014361644034E2
:1029600060700020A0702070E5E770B516460D4637
:10297000044611E0324629462046FFF7FDFE0028B6
:1029800001D0012070BD681C06D0FEF7D3FE801B6D
:10299000A84208D8002D06D020688069C04380076F
:1029A000E8D4002070BD616C202001436164403494
:1029B00060700020A0702070E3E770B5002405254A
:1029C0002D07012204212846FEF7ADFE1E20FEF74A
:1029D0002AFD002204212846FEF7A5FE1E20FEF750
:1029E00022FD641CE4B2032CEBD370BD1CB50021A6
:1029F00022480091204A01910260C16312054260A1
:102A0000816001240722046182630246C160203292
:102A10001170FF235170C2334362816211730163ED
:102A20008161042241634261C161FEF743FB0028DA
:102A300001D0FEF79BFA0120000301906946009443
:102A40000E48FEF7E9FA002801D0FEF78FFA0C488D
:102A5000009069460948FEF7DFFA002801D0FEF72A
:102A600085FA0848009069460448FEF7D5FA002820
:102A700001D0FEF77BFA1CBD002401408802002033
:102A80000200000400000244F0B587B0142168463B
:102A9000FDF78FFB3648C26A04210A43C262C26A4C
:102AA0000A400592C16A01263143C162C16A3140C0
:102AB0000591C26A02210A43C262C06A0527084022
:102AC0003F0705900022F4213846FEF72CFE002235
:102AD00003212848FEF727FE032080030324002556
:102AE0006A4631C269462448FEF75CFD23486A46BF
:102AF00031C269463846FEF755FDF4200090029534
:102B00006946019603953846FEF74CFD1C48009037
:102B10001C480190694602953846FEF743FD029530
:102B200069461448019603950094FEF73BFD300278
:102B300000900195694602953846FEF733FD38202E
:102B40006A4631C269460B48FEF72CFD0022114649
:102B50000620FFF7E3F80620FFF7D6F8002211461B
:102B60000720FFF7DBF80720FFF7CEF807B0F0BD2E
:102B700000100240000400500008005001980000BE
:102B8000088000000000111070B504461148206054
:102B90000025A56025616561A561E56101212562CA
:102BA0000D48E16060602046FEF732FE002800D04C
:102BB000012500212046FEF7C3FD002800D0012595
:102BC00000212046FEF7E1FD002800D0012528461F
:102BD00070BD0000005400401A06100070B50020BF
:102BE00000F016F90028FAD1254900F051F9244DDA
:102BF0000026AD1EA8782C461434002805D1314695
:102C000026600A46666000F03BF90021084600F0A5
:102C100077F9002000F064F919490020491E00F0FE
:102C20004FF96878002816D1154900F031F9A878D5
:102C3000002805D1314626600A46666000F020F97A
:102C40000121002000F064F97B2121600A46002068
:102C5000616000F015F9002000F04AF909A000F0C9
:102C600081FF00F09BF8314626600A46002066602E
:102C700000F006F9B021002000F0BCF870BD0000A3
:102C80001E0000200A0D0A0D4D61696C626F7820EC
:102C90006973206163746976617465640000000083
:102CA000F0B5254B254C9D442078012840D1214684
:102CB0000C31002000F0F4F820460C30807800251C
:102CC000012834D1211D002000F0F2F8A088401C1A
:102CD00080B2A080032803D06E46C82802D017E037
:102CE000A56024E005273F07012204213846FEF7AE
:102CF0001AFDA06800223118C823104600F0E8F839
:102D0000A0680022C830A06004213846FEF70BFD01
:102D10000B49A06888420AD1FDF7DCFF012130464B
:102D2000A560FDF7A1FF7D20C000FEF77CFB2570AC
:102D3000034B1B1D9D44F0BD74ECFFFF1C000020E5
:102D40008813000010B5FFF749FF10BD10B5FFF75D
:102D5000A7FF10BD10B50F480D490160E1214902E0
:102D6000416000218160C16001618161C1610C220B
:102D7000016242614162FFF7BFFB002801D0FEF70C
:102D8000F5F8012204490348FFF71AFC10BD0000C2
:102D900000380140BC0100200000002000B585B0D3
:102DA000082000900F48019002200390002002901C
:102DB000052069460007FEF7F5FB0B490B48FEF7B7
:102DC00040FB0B4A00210948FEF754FB0022114644
:102DD0000620FEF7A3FF0620FEF796FF002005B0B1
:102DE00000BD000000001110030000065800002084
:102DF0005D070008044800680269002A01D0034802
:102E000010470020C043704760000020E40200200B
:102E100070B586B011480090114801901148029099
:102E200011480490114803901148059069461148D3
:102E300000F04EFA0026F643002802D0304606B0D5
:102E400070BD0E4C0C48206001680025002903D09D
:102E5000084888470028F2D02560EFE7B10700084E
:102E6000690700083D0800085D0800089908000887
:102E700035170008E40200203C000020600000201C
:102E800010B5024800F08DF910BD0000E4020020EA
:102E900010B5024800F0B4F910BD0000E4020020B3
:102EA00010B5024800F0C1F910BD0000E402002096
:102EB00010B5024800F0D8F910BD0000E40200206F
:102EC00010B5024800F0D5F910BD0000E402002062
:102ED00010B5024800F0DEF910BD0000E402002049
:102EE00010B5024800F016FA10BD0000E402002000
:102EF00010B5024800F067FA10BD0000E40200209F
:102F000010B5024800F0E7FA10BD0000E40200200E
:102F100010B5024800F0E7FA10BD0000E4020020FE
:102F2000704700008307FF22DB0E9A408907090ED5
:102F3000994000280BDA0007000F0838830808487A
:102F40009B001818C36993430B43C3617047830800
:102F500004489B001B18186890430843186070478A
:102F600000ED00E000E400E030B51949CA8A022A09
:102F700008D0042A06D0072A17D1002203010343F0
:102F8000DBB220E00022C3B20CE0002005E0544395
:102F900024180D68401C2B5580B24C8A8442F6D808
:102FA000521C92B2888A9042EFD830BD002005E0D2
:102FB000544324180D68401C2B5580B24C8A84421F
:102FC000F6D8521C92B2888A9042EFD830BD0000E9
:102FD0000C03002070B5002309490DE0002206E033
:102FE0005C43A4180E68055D521C355592B24C8A9C
:102FF0009442F5D85B1C9BB28A8A9A42EED870BD87
:103000000C03002070B50E4C049E2060218162816B
:10301000A6810220E08200254E07C808002E00D0BD
:10302000401C6082A282E3812582002B04D0B42B55
:1030300002D0A280E18070BDA180E28070BD00005E
:103040000C03002001490860704700000C030020B9
:103050007047F8B5FF260527002401363F07FF25F6
:10306000913531463846FEF759FB002807D00A2033
:10307000FEF7D9F9641CAC42F3D30020F8BD01205F
:10308000F8BD30B404698D0401D5A62000E0AE205F
:10309000A44630BC604713B501A9183000F088F988
:1030A0001CBD38B50C466946183000F007F80028FA
:1030B00003D1684600782080002038BD10B50A464C
:1030C0000123002100F0FCF8002801D00020C043BB
:1030D00010BD000010B50C460A460123064900F059
:1030E000EFF8002802D00020C04310BD2078C007B0
:1030F000C00F2070002010BD0420000010B50A464B
:103100000123172100F0DCF8002801D00020C04383
:1031100010BD000010B50A460123044900F0D0F8A4
:10312000002801D00020C04310BD0000072000008F
:1031300010B50A460123044900F0C2F8002801D066
:103140000020C04310BD00000620000010B50C4652
:103150000A4601230D2100F0B3F8002802D0002018
:10316000C04310BD2078C007C00F2070002010BDE4
:1031700038B50446406A00280CD16946204600F064
:103180004FF868460078242804D0262802D0002072
:10319000C04338BD01206062002038BD8268A6208F
:1031A0001047F7B586B00C46164614216846FDF761
:1031B00000F809206946087200206A4603273B1A76
:1031C0002146DB00D9403546DD40115413181D71EE
:1031D000401C5972C0B25D730428F0D30922112338
:1031E00012026946069800F08DF909B0F0BD30B4BE
:1031F000046915460A462946A44630BCA620604705
:1032000038B50C4669461830FFF764FF002806D130
:1032100068460078002800D001202070002038BDCA
:1032200010B51830FFF76AFF10BD38B50C46694677
:103230001830FFF77DFF002815D168460078C007D9
:10324000C00F2070684600788107C90F6170410780
:10325000C90FA170C106C90FE1708106C90F2171A4
:1032600080096071002038BD10B51830FFF752FF9B
:1032700010BD38B50C4669461830FFF767FF0028C7
:1032800006D168460078002800D001202070002078
:1032900038BD000030B40D46FF2101318A4203D908
:1032A000002030BCC04370470449046951182A46C5
:1032B000A44630BC89B2A620604700000820000068
:1032C00030B4044664688068A44630BC604700009F
:1032D00070B50024651E002815D00A6802604B688E
:1032E0004360CB68C3600B6903618B688360496985
:1032F00041610649C161064981610062002A02D02C
:103300009047002800D02C46204670BD833000082E
:103310001B3B000808B501216A4611706946183048
:1033200000F002F808BD0000F8B5104E0C46074644
:1033300001236A463146FFF7C3FF0025ED4300280D
:1033400011D1694620780978C0074908C00F4900A3
:1033500008436946087001236A463146384600F042
:10336000CAF8002800D02846F8BD0000022000005E
:10337000F8B50C46064601236A460221FFF7A0FF76
:103380000025ED43002811D1694620780978C0074F
:103390004908C00F490008436946087001236A467E
:1033A0000221304600F0A7F8002800D02846F8BDDA
:1033B00010B50A460123002100F09DF8002801D035
:1033C0000020C04310BD08B501216A46117069464E
:1033D000183000F001F808BDF8B5104E0C4607464D
:1033E00001236A463146FFF76BFF0025ED430028B5
:1033F00011D1694620780978C0074908C00F4900F3
:1034000008436946087001236A463146384600F091
:1034100072F8002800D02846F8BD00000620000001
:10342000F8B50C46064601236A460D21FFF748FF12
:103430000025ED43002811D1694620780978C0079E
:103440004908C00F490008436946087001236A46CD
:103450000D21304600F04FF8002800D02846F8BD76
:10346000F0B585B006461D4600920191FF24013457
:10347000A54200D82C46F7682346A620019A009959
:10348000B847070017D17069804703900121B268DF
:10349000A62090470290706980470399411AFF2047
:1034A00041308142029802D20028EFD103E0002887
:1034B00001D00227FF4301980019019000980019DC
:1034C00080B20090281B05042D0C01D0002FCDD018
:1034D000384605B0F0BD08B56A4611706946183027
:1034E000FFF746FF08BD08B56A46117069461830F7
:1034F000FFF796FF08BD30B4044624688068A446F0
:1035000030BC6047F0B585B01C460646019200917C
:10351000FF200130844201D9002500E0E5B2F768C0
:103520002B46AE20009A0199B847070017D1706961
:10353000804703900121B268A620904702907069ED
:1035400080470399411AFF2041308142029802D2FC
:103550000028EFD103E0002801D00227FF430098A4
:10356000401900900198401980B20190601B04043A
:10357000240C01D0002FCBD0384605B0F0BD7047E9
:1035800006E00021491C0906090EFBD0401EC0B20E
:103590000028F6D1704770B505460120FFF7F0FF0F
:1035A000002405263607002240213046FEF7BBF8EE
:1035B0000120FFF7E5FF280601D5012200E00022E7
:1035C00020213046FEF7AFF86806050E0120FFF710
:1035D000D7FF012240213046FEF7A5F80120FFF772
:1035E000CFFF641CE4B2082CDDD370BD10B5FEF72C
:1035F0004BFB10BD30B599B034216846FCF7D9FDBE
:1036000014210DA8FCF7D5FD1C2112A8FCF7D1FD53
:10361000124801680322D2029143C2148918016042
:1036200002200090002410200994012504900395A5
:103630006846FEF73BFD0F200D900F94109400217B
:103640000E9511940DA8FEF71FFC092017941290F7
:10365000149412A8FEF766FB19B030BD007000404C
:1036600010480168821511430160C1680E4A11407B
:10367000C16001680D4A1140016081684908490034
:10368000816001680122920491430160C168FD22BA
:1036900012049143C160002101610549C0038860A3
:1036A00070470000001002400C40FF88F6FFF6FE55
:1036B00000ED00E010B5818CC90707D001684A68A9
:1036C00001235B049A43836A1A434A60818C890709
:1036D00007D501684A6801231B049A43C36A1A4349
:1036E0004A60818C490707D501684A6801239B0419
:1036F0009A43036B1A434A60818C090707D5016816
:103700004A680123DB039A43436B1A434A60818C66
:10371000C90607D50268916801231B039943836B8F
:1037200019439160818C890607D501688A68012355
:103730005B039A43C36B1A438A60818C490612D596
:1037400003685A6801210905046C8A4322435A60C0
:10375000026C8A4207D10268516803235B059943D2
:10376000436C19435160818C090607D501684A688A
:103770000123DB04806C9A4302434A6010BD0000C1
:10378000F8B500260446C667FDF7D4FF0546206855
:103790000068124F000709D501212B460022490578
:1037A0002046009700F088F900280DD120680068B5
:1037B00040070BD501212B460022890520460097A2
:1037C00000F07AF9002801D00320F8BD20206067BE
:1037D000A067603426740020F8BD0000FFFFFF01E1
:1037E00010B5014640318B8B846F0268222C04D0C7
:1037F000906908210843906110BD526A446D1A40D7
:103800002280426D921C42654A8B521E4A83498B2C
:103810000029F1D101680A68FF2321339A430A6025
:1038200001688A68520852008A602021816700215D
:103830000166FEF727FF10BD10B5014640318B8BA6
:10384000846F0268222C04D090690821084390619B
:1038500010BD526A1A40436D1A70426D521C426587
:103860004A8B521E4A83498B0029F1D101680A68AC
:10387000FF2321339A430A6001688A685208520084
:103880008A602021816700210166FEF7FBFE10BDE2
:10389000F8B504462669A268E769324366691020D4
:1038A00000253E432368324378491E68784F3E40E6
:1038B00016431E6023685A6803263603B243E6683F
:1038C00032435A602368A2698B4201D0266A324390
:1038D0009E680B273F02BE4316439E606D4E2368D1
:1038E0006D4AB3420CD1D2689207920F06D0012ADA
:1038F00038D0022A34D0032A20D11EE001201DE056
:10390000664EB3420AD1D2680C26324026D0042A31
:1039100028D0082A24D00C2A10D10EE08B420DD1D9
:10392000D66803229202164018D001229202B61ADB
:1039300018D0B61A14D0964200D10820564A012653
:10394000403A574FF6038B4236D100280CD002285C
:103950000DD0042812D008281FD11CE00020EDE76C
:103960000220EBE70420E9E7FEF744FB08E01068DB
:10397000C00601D5384605E04A4803E0FEF75AFB89
:10398000002873D0626851005118814205D8110394
:10399000814202D303E03046F4E7012566E0010EE0
:1039A00006025008002330185941FCF7CBFB0321D5
:1039B0000902411A3C4A55E0E169B14232D10300A3
:1039C00000F0F7F809070A0D06250606062B060083
:1039D000E3E7FEF70FFB1CE0FEF71CFB19E01068A5
:1039E0006168C00602D54808304A01E0304A4808FC
:1039F0008018FCF77DFB80B201462E4A10399142B7
:103A0000CBD8511C01400007400F08432CE0FEF7C3
:103A100011FB616840004A08EAE761680122480832
:103A20001204E5E7030000F0C4F809070A0D0626B2
:103A30000606062C0600B0E7FEF7DCFA1DE0FEF7EE
:103A4000E9FA1AE010686168C00602D54808C01992
:103A500002E014484A081018FCF74AFB80B20146FD
:103A6000144A1039914298D82168C8600020206615
:103A700060662846F8BDFEF7DDFA61684A088018DE
:103A8000EAE7616848088019E6E70000004800405E
:103A9000F369FFEF0038014040100240004400404D
:103AA00000093D000024F400FFFC0F0000127A0022
:103AB0000048E801EFFF0000FFB581B017460E4651
:103AC00004460A9D09E0681C07D0FDF733FE0499FF
:103AD000401AA8420CD8002D0AD02068C16930468F
:103AE000884318D00020B842EDD0002005B0F0BDCA
:103AF00020680168FF22A13291430160206881683B
:103B000049084900816020206067A0670020603478
:103B100020740320EAE70120E5E7F8B5C56804460C
:103B20008E0402D5A620A847F8BDAE20A847050000
:103B300015D16069804707460121A268AE209047F1
:103B4000064660698047C11BFF204130814202D296
:103B5000002EF1D103E0002E01D00225ED432846CE
:103B6000F8BD00000FB410B503A9044B044A029835
:103B700000F03CF810BC08BC04B01847213E000817
:103B8000B00100202021020C01D010211046020AB1
:103B900001D010460839020901D01046091F8208D9
:103BA00001D01046891E420801D0881E7047081AAD
:103BB000704730B47446641E2578641CAB4200D252
:103BC0001D46635D5B00E31830BC184702E008C87F
:103BD000121F08C1002AFAD170477047002001E087
:103BE00001C1121F002AFBD170470000FFB58DB044
:103BF0000F460546002606E025280AD0109A0F99A0
:103C000090476D1C761C28780028F5D1304611B0FD
:103C1000F0BD00240121674A009400E004436D1CBC
:103C20002B780846203B98401042F7D128782E2860
:103C300015D10420044368786D1C2A280AD101CFCD
:103C40006D1C00900BE000990A2251433039401856
:103C50006D1C00902878014630390929F3D928785D
:103C6000692843D006DC0028D0D063280BD0642814
:103C700004D13BE073280FD075284CD0109A0F99CF
:103C80009047761C94E038786946087200204872A4
:103C900002A80190012003E0386801900020C04391
:103CA0003F1D61070CD5002400E0641C00998C4284
:103CB0000FDA8442F9DB0199095D0029F5D108E0AA
:103CC000002400E0641C8442FCDB0199095D0029AA
:103CD000F8D1361907E0019801990078491C019143
:103CE000109A0F999047641EF5D261E00A20019066
:103CF00001CF002802DA40422D2102E0210504D53F
:103D00002B216A461172012103E0E10701D0202135
:103D1000F7E70C9104E00A20019001CF00210C91FB
:103D20000BA90B9108E00199FCF7E2F90A460B99FF
:103D30003032491E0B910A700028F4D10B9803A968
:103D4000081A20300190600701D5009801E0012099
:103D500000900199884203DD01460198081A00E0AD
:103D600000200024009006E002A8109A005D0F9940
:103D70009047641C761C0C988442F5DB04E0109A92
:103D800030200F999047761C0099481E009000291A
:103D9000F5DC08E00B980B990078491C0B91109A00
:103DA0000F999047761C0199481E01900029F1DC7B
:103DB0006D1C28E709280100F8B50646FCF79EFDB2
:103DC000FCF726FEFCF7DBFDFF25F5352846FDF761
:103DD0002AFB124800F09AF904001DD0FF20C822E7
:103DE00000905A2311462046FFF70CF92046FFF7B2
:103DF00029F9FF20FFF7B8F83046FFF7EBF8204627
:103E0000FCF7DDFD2846FDF70EFBFCF709FF204619
:103E100000F012F8FCF75CFDF8BD0000881300000C
:103E200013B57D23DB00012269460248FEF72BFC17
:103E300000981CBDBC01002010B5002823D0124BF7
:103E40000022001F196803E0814203D80A4649682E
:103E50000029F9D1002A0AD01368841A9C4204D19F
:103E6000006818181060104602E0506000E018600A
:103E7000002907D002680B1A934203D10B68D218AD
:103E800002604968416010BDB4010020EAB0FDF74E
:103E900003FFFFF7AFFBFEF7F7FDFEF75BFFFEF753
:103EA000A5FDFEF74FFFFEF788FD00247A4D287828
:103EB000012802D0FEF74AFFF8E7A878012805D1CB
:103EC000FEF77BFD7548FFF777FF2C70A878022876
:103ED00006D1FEF772FD7248FFF76EFF2C706C7012
:103EE0006D4880780328E1D1FEF767FD254600275D
:103EF00069947E006846845300216A48FDF737F8CC
:103F00006848006884626848679067A96548FDF75B
:103F100083F86448FDF73AFA7D21C9006148FDF74E
:103F2000D5F96048FDF7C2F8694688535D48FDF74A
:103F30005BFA6846805B00212D1833A884535948EA
:103F4000FDF715F85748006884620120679067A95B
:103F50005448FDF761F85348FDF718FA7D21C90070
:103F60005048FDF7B3F94F48FDF7A0F833A988533F
:103F70004C48FDF739FA33A9895B69987F1C4018D2
:103F8000BFB26990642FB4D328466421FCF7B0F81F
:103F900081B230A8018145A0FFF7E4FD6421699852
:103FA000FCF7A6F881B260A8818244A0FFF7DAFD91
:103FB00060A8808AFCF7ECF9054630A80089FCF778
:103FC000EFF90022424BFCF77BF9FCF710FA294687
:103FD000FCF737F93F49FCF7F7F8FCF7EFF905B2C2
:103FE00029463DA0FFF7BEFD7D20C000FDF71BFA6E
:103FF0003C483D49401BFCF791F80121081A642117
:10400000484385B2294639A0FFF7ACFD28464B3816
:10401000192802D8012066902FE028463238192846
:1040200002D8022066902AE028461938192802D8BA
:10403000032066901CE06D1E182D02D804206690A7
:1040400027E005252D07012204212846FDF76BFBFB
:104050006420FDF7E8F9002204212846FDF763FB00
:104060002548FFF7A9FE6698012806D0022806D049
:1040700003280CD0042805D10BE0204800E020489C
:10408000FFF79AFE04480470447084700EE71D48E0
:10409000F6E71D48F4E700006C00002078410008B6
:1040A0000055000888020020020000044144435FDC
:1040B000444154413A25640D0A00000056524546D9
:1040C000494E545F444154413A25640D0A000000B2
:1040D0000000044000007A444144433A25646D7670
:1040E0000D0A000039080000DA02000042545F4E59
:1040F000756D3A25640D0A00A8B6000888680008A6
:10410000107C0008988F000820A30008F0B50B3041
:10411000C108C900144F0026144A0FE003688B42FF
:104120000BD38B4205D95C1A4318456830C3083B52
:1041300000E04368136002C004E0021D106800281C
:10414000ECD13046002803D13868002801D0002087
:10415000F0BD064A06481060064A121AD208D2007C
:1041600044C001203860D7E7B8010020B401002026
:104170002C030020281A002000000000000000008E
:1041800001A5155555555000000000000000000520
:1041900055000000000000000001F40000000000D5
:1041A000000000000000000000000000000000000F
:1041B000000001A9555555555400000000000000AD
:1041C000001555000000000000000001FC00000088
:1041D00000000000000000000000000000000000DF
:1041E0000000000001A55555555554000000000081
:1041F0000000001555000000000000000001F40060
:1042000000000000000000000000000000000000AE
:1042100000000000000001A555555555550000004F
:104220000000000000155500000000000000000024
:10423000F40000000000000000000000000000008A
:10424000000000000000000001A5555555555540DF
:1042500000000000000000155500000000000000F4
:104260000000F4000000000000000000000000005A
:104270000000000000000000000001A55555555544
:10428000555000000000000000155500000000001F
:1042900000000000F400000000000000000000002A
:1042A00000000000000000000000000001A55555BE
:1042B0004000000000000000000000555500000014
:1042C000000000000001F4000000000000000000F9
:1042D000000000000000000000000000000001A538
:1042E0005500000000000000000000155555550065
:1042F0000000000000000001F400000000000000C9
:1043000000000000000000000000000000000000AD
:1043100001A55000000055550000000005555555F9
:1043200055000000000000000001F400000000152E
:10433000500000000000000000000000000000002D
:10434000000002A500000006AAAA50000001555571
:10435000555555000000000000000003F400000067
:1043600007FFFF4000000000000000000000000008
:104370000000000006940000005AAAAAA5000555F6
:104380005555555555000000000000000003D000B1
:1043900000001FFFFFF4000000000000000000000C
:1043A0000000000000000650155001AAAAAAAA5059
:1043B00005555555555555000000000000000007F3
:1043C00040000000FFFFFFFF400000000000000071
:1043D00000000000000000000505AAA501AAAAAA85
:1043E000AAA4015555555555550000000000000080
:1043F000000001FFF501FFFFFFFFF00000000000DB
:1044000000000000000000000000005AAAAA96AABE
:10441000AAAAAAA9005555555555550000000000F7
:10442000000000001FFFFFC7FFFFFFFFFC000000B0
:1044300000000000000000000000000001AAAAAA7D
:10444000AAAAAAAAAAA900155555555555000000B3
:10445000000000000000FFFFFFFFFFFFFFFFFD0067
:10446000000000000000000000000000000006AA9C
:10447000AAAAAAAAAAAAAAAA4005555555555500FE
:104480000000000000000003FFFFFFFFFFFFFFFF31
:10449000FF400000000000000000000000000000DD
:1044A0001AAAAAAAAAAAAAAAAAAA90015555555513
:1044B0005500000000000000000FFFFFFFFFFFFF9E
:1044C000FFFFFFC0000000000000400000000000EF
:1044D00000006AAAAAAAAAAAAAAAAAAA900155553D
:1044E00055555500000000000000003FFFFFFFFF92
:1044F000FFFFFFFFFFD000000000000050000000A1
:10450000000000006AAAAAAAAAAAAAAAAAAAA400A3
:10451000555555555540000000000000007FFFFF35
:10452000FFFFFFFFFFFFFFF0000000000000A400FE
:10453000000000000001AAAAAAAAAAAAAAAAAAAAD6
:10454000A4001555555555F000000000000000FF6F
:10455000FFFFFFFFFFFFFFFFFFF400000000000070
:10456000A900000000000001AAAAAAAAAAAAAAAA51
:10457000AAAAA8001555555555FD000000000000D9
:1045800001FFFFFFFFFFFFFFFFFFFFFC0000000038
:104590000000AA50000000001406AAAAAAAAAAAA0B
:1045A000AAAAAAAAA9000555555555FF4000000022
:1045B000000003FFFFFFFFFFFFFFFFFFFFFC000006
:1045C00000000000AAE5400000016406AAAAAAAA09
:1045D000AAAAAAAAAAAAA9000155555555FFF400EE
:1045E0000000007403FFFFFFFFFFFFFFFFFFFFFD61
:1045F000000000000000AEAA9540015AE406AAAAF5
:10460000AAAAAAAAAAAAAAAAAA000155555555FF5C
:10461000FFD400001FF007FFFFFFFFFFFFFFFFFFBA
:10462000FFFF000000000000AAAAAAAAAABF9006E5
:10463000AAAAAAAAAAAAA656AAAAAA400055555545
:1046400055FFFFFFFFFFFFD007FFFFFFFFFFFFF753
:1046500057FFFFFF000000000000AAAAAAAAAABAFA
:10466000900AAAAAAAAAAAAA6BFEAAAAAA400055B8
:10467000555555FFFFFFFFFFFFC00FFFFFFFFFFF77
:10468000FF7FFFFFFFFF000000000000AAAAAAAA08
:10469000AAAA900AAAAAABA95AAABFFFAAAAAA4084
:1046A0000055555555FFFFFFFFFFFFC00FFFFFFFF0
:1046B000FD5FFFFFFFFFFFFF400000000000AAAA10
:1046C000AAAAAAAA900AAAAAAA5A96AAFFFFAAAABE
:1046D000AA400055555555FFFFFFFFFFFFC00FFFD4
:1046E000FFFF5FD7FFFFFFFFFFFF4000000000005C
:1046F000AAAAAAAAAAAA400AAAAAAAAFFAAAFFFF25
:10470000AAAAAA400055555555FFFFFFFFFFFF40DD
:104710000FFFFFFFFFFFFFFFFFFFFFFF4000000055
:104720000000AAAAAAAAAAAA4006AAAAAAFFFEAAA2
:10473000FFFFEAAAAA800015555551FFFFFFFFFFB2
:10474000FF4007FFFFFFFFFFFFFFFFFFFFFFC0006E
:1047500000000000AAAAAAAAAAAA4006AAAAAAFF1A
:10476000FFAAFFFFEAAAAA900015555555FFFFFFC3
:10477000FFFFFF0007FFFFFFFFFFFFFFFFFFFFFF40
:10478000C00000000000AAAAAAAAAAAA4006AAAAD3
:10479000ABFFFFAAF96FEAAAAA900015555555FF7D
:1047A000FFFFFFFFFF0007FFFFFFFFFFFFFC3FFFD3
:1047B000FFFFC00000000000AAAAAAAAAAA94006FA
:1047C000AAAAABFFFFEAF407EAAAAA90001555557A
:1047D00055FFFFFFFFFFFD0003FFFFFFFFFFFFF49B
:1047E00007FFFFFFC00000000000AAAAAAAAAAA90A
:1047F0000006AAAAAAFF96EAB406EAAAAA800015A9
:10480000555555FFFFFFFFFFFD0003FFFFFFFFC7EB
:10481000FFF403FFFFFFC00000000000AAAAAAAA3D
:10482000AAA50002AAAAAAFF41AAA401EAAAAA80EC
:104830000015555555FFFFFFFFFFF50003FFFFFF74
:10484000FF00FFF001FFFFFFC00000000000AAAA68
:10485000AAAA95550001AAAAAAFF406A9001AAAA8D
:10486000AA400015555555FFFFFFFFD5540001FF25
:10487000FFFFFF003FD000FFFFFF400000000000EF
:10488000AAAAA95555550001AAAAAABE401A900184
:10489000AAAAAA400405555555FFFFFD55555400D9
:1048A00001FFFFFFFF001FD000FFFFFF40000000DF
:1048B00000005555555555554001AAAAAABD001AE4
:1048C0009001AAAAAA4059555555555555555540D8
:1048D000040000FFFFFFFD000FD000FFFFFF405D61
:1048E0000000000055555555555540006AAAAAAD1F
:1048F000001AA401AAAAAA55AA55555555155541FD
:1049000050000000007FFFFFFD000FF000FFFFFFE1
:1049100041FF4000000055555555555540006AAAC5
:10492000AAAD001AA401AAAAAAAAAA5555555515B6
:10493000554150000000007FFFFFFD000FF401FF14
:10494000FFFFFFFF500000005555555555554000DD
:104950005AAAAAAA001AA902AAAAAAAAAA555555E9
:104960005511404100000000001FFFFFFF000FFD38
:1049700003FFFFFFFFFF50000000555555555555EB
:1049800040001AAAAAAB401AAA96AAAAAAAAAA558D
:1049900055555550104000000000001FFFFFFF401C
:1049A0001FFFD7FFFFFFFFFF54000000555555556F
:1049B000555540001AAAAAAA905AAAAAAAAAAAAA0F
:1049C000AA5555555504144000000000000FFFFF84
:1049D000FFC01FFFFFFFFFFFFFFF54000000555502
:1049E00055555555400006AAAAAAA5AA9556AAAAA1
:1049F000AAAAAA5555555505400000000000000719
:104A0000FFFFFFF5FFD557FFFFFFFFFF540000003A
:104A1000555555555555500001AAAAAAAAA94000B6
:104A20005AAAAAAAAA5555555540000040000000B0
:104A30000001FFFFFFFFFD00001FFFFFFFFF54000D
:104A40000000555555555555500001AAAAAAAA94DB
:104A5000000016AAAAAA6A5555555500000000057F
:104A600055400000FFFFFFFFD0000007FFFFFF7F62
:104A7000540000005555555555555000006AAAAAD6
:104A8000AA40000546AAAAAAAA55555555001500E0
:104A90000015555000007FFFFFFF40000003FFFF9F
:104AA000FFFF500000005555555555555405556AA2
:104AB000AAAAA900000141AAAAAAAA5555555505B6
:104AC00050000001555000007FFFFFFD0000000175
:104AD000FFFFFFFF50000000555555555555545ADE
:104AE000AAAAAAAAA900000001AAAAAAAA555555CD
:104AF00055054000000055501FFFFFFFFFFC000060
:104B00000001FFFFFFFF500000005555555555555A
:104B1000556AAAAAAAAAA800000001AAAAAAAA5588
:104B2000555555450000000155557FFFFFFFFFFC1F
:104B300000000001FFFFFFFF4000000055555555E4
:104B4000555555AAAAAAAAAAA800000006AAAAAA68
:104B5000A95555555554000000055555FFFFFFFF59
:104B6000FFFC00000003FFFFFFFD40000000555563
:104B700055555555556AAAAAAAAAA900000006AA21
:104B8000A95AA555555555500000000115557FFFF0
:104B9000FFFFFFFC00000007FFFD5FF500000000C5
:104BA000555555555555556AAAAAAAAAA9000000F7
:104BB0001AAAA55AA555555555500000000155553E
:104BC0007FFFFFFFFFFC0000001FFFF55FF5000007
:104BD0000000555555555555556AAAAAAAAAAA4086
:104BE00000016AAAA56AA555555555400000000167
:104BF00005157FFFFFFFFFFF0000007FFFF57FF43B
:104C000000000000555555555555555AAAAAAAAA4F
:104C1000AA940015AAAA55AA9555555555400000C5
:104C2000000005155FFFFFFFFFFFD00005FFFF55E8
:104C3000FFD000000000555555555555555A9AAAB4
:104C4000AAAAAAA9556AAAAA95AA55555555554082
:104C50000000000000055FDFFFFFFFFFFD557FFF45
:104C6000FFD5FF5000000000555555555555555579
:104C70005AAAAAAAAAAAAAAAAAAA95A9555555554E
:104C80005500000000000005555FFFFFFFFFFFFF1C
:104C9000FFFFFFD5FD400000000055555555555507
:104CA00055556AAAAAAAAAAAAAAAAAA955A955554F
:104CB00055555500000000040001557FFFFFFFFF20
:104CC000FFFFFFFFFD55FD00000000005555555545
:104CD000555555555AAAAAAAAAAAAAAAAA9555A943
:104CE000555555555500000000000000555FFFFF69
:104CF000FFFFFFFFFFFFD555FD00000000005555E9
:104D00005555555555555AAA9AAAAAAAAAAAAA55B6
:104D100056A5555555555500000000000400155F77
:104D2000FFDFFFFFFFFFFFFF5547F500000000001A
:104D3000555555555555555556AA96AAAAAAAAAAE3
:104D4000AA555695555555555500000000000000D0
:104D50000157FFD7FFFFFFFFFFFF5507D5000000FA
:104D60000000555555555555555555AAA56AAAAA39
:104D7000AAAAA9555A555555555555000000000089
:104D800000000055FFF57FFFFFFFFFFD541F50009F
:104D9000000000005555555555555555555AA555C2
:104DA0006AAAAAAAA5555A55555555555500000049
:104DB0000000000000055FF5557FFFFFFFF5405F35
:104DC0004000000000005555555555555555555650
:104DD000A955555AAAAA9555695555555555550081
:104DE000000000000000000157FD05555FFFFFD5E2
:104DF000017D00000000000055555555555555558D
:104E000055556A955555AA555555A5155555555598
:104E100055000000000000000000557FD05555FFF0
:104E2000555405F4000000000000555555555555E2
:104E3000555555555A955555AAA95556900055554D
:104E4000555155000000000000000000155FD4011E
:104E500055FFFD5417D00000000000005555555572
:104E60005555555555555AA55555AAA9555A400059
:104E70000155554155000000000000000000055F8D
:104E8000F50005FFFD555F4000000000000055558E
:104E9000555555555555555555AA55555AA9556900
:104EA000000000155505550000000000000000003E
:104EB0000005FF50015FFD557D000000000000006F
:104EC00055555555555555555554005AA555555593
:104ED00056A40000000554555500000000000000D5
:104EE000000000001FF500155557F00000000000FD
:104EF0000040555555555555555555000005AA5571
:104F00005555AA5000000001515555000000000001
:104F100000000000000001FF555555FF4000000053
:104F20000000005055555555555555555000000039
:104F30005AAAAAAAA5000000000055555500000075
:104F40000000000000000000001FFFFFFFF4000051
:104F50000000000000005555555555555555400069
:104F60000000156AAAA95000000000005555550020
:104F70000000000000000000000000017FFFFD4075
:104F80000000000000000000555555555555555579
:104F90000000000054155554000014000000555541
:104FA0005500000000000000000000000000001597
:104FB00040000000000000000000555555555555B3
:104FC00055540000000154000000000015000000CE
:104FD00055555500000000000000000000000000D2
:104FE000000000000000000000000000555555556D
:104FF0005555555400000015540000000000155090
:1050000000005555550000000000000000000000A1
:1050100000400000000000000000000000005555A6
:1050200055555555555400000155500000000000DD
:105030001555400015555500000000000000000007
:105040000000004000000000000000000000000020
:1050500055555555555550540000555550000000B4
:105060000000155500001555550000001000000007
:105070000000000000000000000000000000000030
:105080000000555555555555515400005555400093
:1050900000000000055500001555550000050000F2
:1050A0000000000000000000000000000000000000
:1050B000000000005555555555555554000055559F
:1050C0004000000000000555000015555500001572
:1050D000400000000000000000000000000000018F
:1050E00040000000000055555555555555540000D9
:1050F00015554000000000000555000015555500ED
:1051000000555400000000000000000000000000F6
:105110000000500000000000555555555555555498
:105120000000155500000000000005550000555511
:1051300055000015400010000000000000000000B5
:105140000000000010000000000055555555545552
:105150006515540015550000008000014055000001
:1051600055555500000011441430000000000000A7
:105170000000C000014000000000000055555B9297
:105180005A5561355800155400000190000241AE97
:10519000F41AAAAB8500005FD34F0030355C0000E5
:1051A00000000000C0000340FFF01FFFFFC0555586
:1051B0005655555561755800055400000190000280
:1051C0004054600055575500045701414070300C61
:1051D000000000000000C000030000700000074055
:1051E000555516559406B92AA80005540156AAEA41
:1051F000A91BA855900015595500040301C003FCD4
:105200003FFC0000000007FFFFFC1FFC00C0000087
:105210001C005555ABABEA95755515000154555515
:1052200056D555561856400055A5550001FFFFFFAD
:10523000C0300000000140000557D554071C030092
:105240000000F00055555655D555759967400151E8
:10525000555551D555491416005696455500000729
:1052600001C00030DD77000000000001D0000D1407
:10527000030017D340005555565595157595524066
:105280000165555552655559655B55FFF6555500F5
:10529000000300C10131C55300007000000370001D
:1052A0000C345F55FFF7000055555654965579A9B3
:1052B0006A400175555556255558755B95FFF6554D
:1052C0005500000314C7007CFD7F0000740000033C
:1052D00034000C315FD5FFF7000055555BD599566A
:1052E000F0014555552555555919555971566BFFBE
:1052F000A7555500001FD0DC03F001401500300019
:10530000000D0C000C70037FFFF7000055559A0547
:10531000744061FFFF6FF555555559565556D55692
:105320007FFEA755550001DF00740031FFFF7FF4B9
:105330005100001C070003D0037FFFF70000554415
:105340000611B050701AA5BFF55555557D564555F7
:10535000E5567FFAA7555500000300F040300FF0E6
:10536000FFF40400003D034011F0037FFFF700004D
:105370000055565664957566597FE55556A5965560
:1053800095A65D567EAAA755510000030774D570F7
:10539000734D7FF40007F5D300D1F75C037FFFF76F
:1053A000000055AA56695995729A665FE5556BD704
:1053B0005595699DA5067FFD56554055FF073D5DF6
:1053C000C473DF775FF0043FD750C03DDDF4077F43
:1053D000FD030000AAAA6956A656D569696ED5557F
:1053E0007FD9B9555955FEA97FFDBD5550FFFF7DA9
:1053F00047F757D47D7D3FD0007FCDFC000D55FF92
:10540000FD7FFDFD0000AAAA56AAE9796AE96FFFAF
:105410009555BFE7FD556ADBFB405BFF555555FFD2
:10542000FF57FFFD7D7FFD7FFFD001FFF7FD003FB0
:10543000DFFF405FFF550000AAAAAABAAAABBEEAE6
:10544000FFFF9556FFFFFE556FFFFF9457FFFE5578
:1054500055FFFFFFFFFFFFFFFFFFFFC003FFFFFF41
:10546000003FFFFFC017FFFF4000AAAAAAAAAAAAEE
:10547000FFEBFFFF9556FFFFFE557FFFFFD556FF61
:10548000FF9555FFFFFFFFFFFFFFFFFFFFC003FF7B
:10549000FFFF007FFFFFD017FFFFC00056AAAAAA98
:1054A000AAABFFFFFFFF9557FFFFFE556FFFFFD52C
:1054B00055FFFF955557FFFFFFFFFFFFFFFFFFC0A1
:1054C00007FFFFFF003FFFFFD015FFFFD000555A39
:1054D000AAAAAAABFFFFFFFF5557FFFFFE556FFFBC
:1054E000FFD555FFFFE555005FFFFFFFFFFFFFFF03
:1054F000FF4007FFFFFF003FFFFFD015FFFFF40055
:105500002222200001A25224444488891111112230
:105510002449294AA52492490048888A484694A4E7
:105520009229292524A4A4A494929545291492494A
:105530002255020000010542924944925252121231
:105540004A4248422AA552AAA48802504420882EE2
:10555000AAA4A49249090948A92129252AA92AAA65
:10556000401022A8041084254A1692124924A4A4AB
:10557000A404949492914AA911154508022080121E
:10558000929D4A49492492525212A24A42484AA440
:1055900084A44420A2A8021549486A5A24A4924926
:1055A0000909490921292521125202228A08025497
:1055B000A4A42B396949124924A4A482509494923A
:1055C00095A908A89020A250091252A4AAB4924901
:1055D0002492525250844A4248488852044A8A08C7
:1055E00004A4A90A92D14249254A4909091429115A
:1055F000292525650151002082A129256928B7D4D4
:1056000092522124A4A4A2840A4A5290A8A8045524
:105610000A280892921245D522490A949252524A77
:10562000514121084AEA0551004081224849492A4E
:10563000AD9524A44A49090924809494A524565080
:1056400004522824002524A4A36A4892552124A4A6
:10565000A49254214A5293B50551048281549295E3
:10566000152BBEA524849492525249150421085941
:105670006B50042010280248A2A495545092554A19
:1056800049090924A520B4A517B5852089450550E9
:105690002518924EE96A49142124A4A49213890A78
:1056A0006B4D5A90090410A00A49454955B5A525E6
:1056B000554A9252924AA8C02DA52AAB42A0514405
:1056C000154124AA2A56D34894AC944908A92CA57C
:1056D000B486F2A55DA80A0829442A9224A51B666F
:1056E000A24A2AA524A544AA56E82A949414C2A141
:1056F000528492904A92916DAD952555A695296A4E
:10570000B73B5A834922AAA814445248A5294A54AF
:10571000B6CB289A6AD45895A5AD4D6D0924948EC0
:10572000A5429289251292294A2D9D4D4A8F7E9538
:105730004B6AF596A240924252B129085252494909
:105740004A2176B6AA2D6AD49A2565AAAA152549B2
:10575000292654945289095424A114ADAD99574D6A
:10576000AE4C9232544548802494931242A554AAD8
:105770004A92088176B6B41AAEF525249492909296
:10578000A952424AA92A1225555524A454DB6DAAD0
:10579000DED5AA909252484A42400929231AA954B8
:1057A000AAAAAA400201AD5B592A5B562509092520
:1057B00025292AA49495488AAAAAAAA9155155F67A
:1057C000EAB4B489C148A4AA929094902922492AA3
:1057D000A952AA55554008029AAEA92AB8AA25226C
:1057E00040484A42248494928D554D5555550AA2FD
:1057F000936DC564B095129249152525291129226A
:105800004954AAB2AAAAAA400805D556925490A40F
:105810004924A4925094A404949285554D55555210
:10582000148156AB4CA9213A12849102490A42498B
:105830002A4248AAAAB2AAAA95402805CB2A84A837
:1058400090A45248A924A2A91201292505554D5515
:1058500054AA0A824B2A8C52122912892490924807
:1058600014A4AA4A48AAB552AAA52020100D9655FC
:105870002948A44924924A4922C24904912502AAEE
:10588000AAA9108A044296AA8884A230A482482039
:10589000A4942920224A48AAAAAA84A44051080A0A
:1058A00014555210941254A51412412495412125E7
:1058B000254A9228022A00215ECD22294921491237
:1058C000124A492A12448A949089244882A94A2576
:1058D0000A14289484A02824A94911149289290023
:1058E0004925449102284AAA40A09A95425215257A
:1058F000124C52448248549255249229245496AA18
:10590000AA1414544829294054491509025525025E
:1059100048809124848122A9555B42A29A954A84A9
:10592000A44514A652510092A92512489252555AE4
:10593000ADAAD529085451105211544245090452B8
:10594000484248809449092AAAB55B554452B1148B
:10595000A52944A61517A4A1202529252B2124A477
:10596000AEAB556AAD29242A421284A09488A2893C
:10597000281512949086489242575556AAD584927B
:10598000A895485209C6224BE2454048424A57254D
:105990004914AF6DB556B652496528854942968976
:1059A00021D128148529252C1024923D5555BB5B07
:1059B00029245085292253A60485E48540214A10D4
:1059C0009D4A92449F56AED5ED84AB4A28124905B4
:1059D0004B2252F8528A08214A782449293BBEF5C5
:1059E0006EB65548A145492257AD1121FA1480924F
:1059F00094A5711124825EDB5FB555552A94290464
:105A00008905874494EE4250000208E4489254BE4F
:105A1000BF695552AAAAA2845250AED51042FF11B6
:105A200069024951D012491936EEAAAA885555146F
:105A30005289229BCF8528FF8434501025C4A4A40A
:105A4000ACBD7B5524554954A12914892DA5A0022C
:105A5000F6D14E05450B9050125A1D7E8892A5AA8C
:105A6000929484024257D689315FE4159000472A08
:105A7000E5491BBAEC52555A54AA452AA9289BE37A
:105A8000C0487FF893C4549E81C8A4ABD9FA95ADA1
:105A9000AD4A4928900A424FA8D2053FF44571000B
:105AA0001C2B801240FB756AD6D652A4824AA129CB
:105AB0002FF44090BDBF10D80ABA832AA9151DEA59
:105AC000AEBABB491051120A4097E90A243FFE853D
:105AD000374030170084A097DBB5AB55244524A48C
